{
  "_format": "hh-sol-artifact-1",
  "contractName": "HelloEthereum",
  "sourceName": "contracts/HelloEthereum.sol",
  "abi": [
    {
      "inputs": [],
      "stateMutability": "payable",
      "type": "constructor"
    },
    {
      "anonymous": false,
      "inputs": [
        {
          "indexed": true,
          "internalType": "address",
          "name": "from",
          "type": "address"
        },
        {
          "indexed": false,
          "internalType": "string",
          "name": "message",
          "type": "string"
        },
        {
          "indexed": false,
          "internalType": "uint256",
          "name": "timestamp",
          "type": "uint256"
        }
      ],
      "name": "NewInteraction",
      "type": "event"
    },
    {
      "inputs": [],
      "name": "getAllInteractions",
      "outputs": [
        {
          "components": [
            {
              "internalType": "address",
              "name": "actor",
              "type": "address"
            },
            {
              "internalType": "string",
              "name": "message",
              "type": "string"
            },
            {
              "internalType": "uint256",
              "name": "timestamp",
              "type": "uint256"
            }
          ],
          "internalType": "struct HelloEthereum.Interact[]",
          "name": "",
          "type": "tuple[]"
        }
      ],
      "stateMutability": "view",
      "type": "function"
    },
    {
      "inputs": [],
      "name": "getTotalInteractions",
      "outputs": [
        {
          "internalType": "uint256",
          "name": "",
          "type": "uint256"
        }
      ],
      "stateMutability": "view",
      "type": "function"
    },
    {
      "inputs": [
        {
          "internalType": "string",
          "name": "_message",
          "type": "string"
        }
      ],
      "name": "interact",
      "outputs": [],
      "stateMutability": "nonpayable",
      "type": "function"
    }
  ],
  "bytecode": "0x60806040526200004f6040518060400160405280601c81526020017f48656c6c6f2c2049276d206120736d61727420636f6e747261637421000000008152506200007760201b620004e01760201c565b606444426200005f9190620001c4565b6200006b919062000261565b60018190555062000308565b62000117816040516024016200008e919062000184565b6040516020818303038152906040527f41304fac000000000000000000000000000000000000000000000000000000007bffffffffffffffffffffffffffffffffffffffffffffffffffffffff19166020820180517bffffffffffffffffffffffffffffffffffffffffffffffffffffffff83818316178352505050506200011a60201b60201c565b50565b60008151905060006a636f6e736f6c652e6c6f679050602083016000808483855afa5050505050565b60006200015082620001a8565b6200015c8185620001b3565b93506200016e8185602086016200022b565b6200017981620002f7565b840191505092915050565b60006020820190508181036000830152620001a0818462000143565b905092915050565b600081519050919050565b600082825260208201905092915050565b6000620001d18262000221565b9150620001de8362000221565b9250827fffffffffffffffffffffffffffffffffffffffffffffffffffffffffffffffff0382111562000216576200021562000299565b5b828201905092915050565b6000819050919050565b60005b838110156200024b5780820151818401526020810190506200022e565b838111156200025b576000848401525b50505050565b60006200026e8262000221565b91506200027b8362000221565b9250826200028e576200028d620002c8565b5b828206905092915050565b7f4e487b7100000000000000000000000000000000000000000000000000000000600052601160045260246000fd5b7f4e487b7100000000000000000000000000000000000000000000000000000000600052601260045260246000fd5b6000601f19601f8301169050919050565b610e6180620003186000396000f3fe608060405234801561001057600080fd5b50600436106100415760003560e01c806323348e161461004657806390281af714610064578063c0748a3f14610080575b600080fd5b61004e61009e565b60405161005b9190610a73565b60405180910390f35b61007e60048036038101906100799190610749565b6100a7565b005b61008861038f565b604051610095919061098f565b60405180910390f35b60008054905090565b60016000808282546100b99190610b55565b925050819055506100ff6040518060400160405280600c81526020017f257320776173206865726521000000000000000000000000000000000000000081525033610579565b600260405180606001604052803373ffffffffffffffffffffffffffffffffffffffff16815260200183815260200142815250908060018154018082558091505060019003906000526020600020906003020160009091909190915060008201518160000160006101000a81548173ffffffffffffffffffffffffffffffffffffffff021916908373ffffffffffffffffffffffffffffffffffffffff16021790555060208201518160010190805190602001906101be92919061063e565b50604082015181600201555050606460015442446101dc9190610b55565b6101e69190610b55565b6101f09190610c8c565b60018190555060056001541161033c5761023f6040518060400160405280600781526020017f257320776f6e210000000000000000000000000000000000000000000000000081525033610579565b6000655af3107a400090504781111561028d576040517f08c379a000000000000000000000000000000000000000000000000000000000815260040161028490610a33565b60405180910390fd5b60003373ffffffffffffffffffffffffffffffffffffffff16826040516102b39061097a565b60006040518083038185875af1925050503d80600081146102f0576040519150601f19603f3d011682016040523d82523d6000602084013e6102f5565b606091505b5050905080610339576040517f08c379a000000000000000000000000000000000000000000000000000000000815260040161033090610a53565b60405180910390fd5b50505b3373ffffffffffffffffffffffffffffffffffffffff167feb58f628b2688c2ad0cd771dee18fa5044560151365d7e11a85941de5d2e433b8242604051610384929190610a03565b60405180910390a250565b60606002805480602002602001604051908101604052809291908181526020016000905b828210156104d757838290600052602060002090600302016040518060600160405290816000820160009054906101000a900473ffffffffffffffffffffffffffffffffffffffff1673ffffffffffffffffffffffffffffffffffffffff1673ffffffffffffffffffffffffffffffffffffffff16815260200160018201805461043c90610c29565b80601f016020809104026020016040519081016040528092919081815260200182805461046890610c29565b80156104b55780601f1061048a576101008083540402835291602001916104b5565b820191906000526020600020905b81548152906001019060200180831161049857829003601f168201915b50505050508152602001600282015481525050815260200190600101906103b3565b50505050905090565b610576816040516024016104f491906109b1565b6040516020818303038152906040527f41304fac000000000000000000000000000000000000000000000000000000007bffffffffffffffffffffffffffffffffffffffffffffffffffffffff19166020820180517bffffffffffffffffffffffffffffffffffffffffffffffffffffffff8381831617835250505050610615565b50565b610611828260405160240161058f9291906109d3565b6040516020818303038152906040527f319af333000000000000000000000000000000000000000000000000000000007bffffffffffffffffffffffffffffffffffffffffffffffffffffffff19166020820180517bffffffffffffffffffffffffffffffffffffffffffffffffffffffff8381831617835250505050610615565b5050565b60008151905060006a636f6e736f6c652e6c6f679050602083016000808483855afa5050505050565b82805461064a90610c29565b90600052602060002090601f01602090048101928261066c57600085556106b3565b82601f1061068557805160ff19168380011785556106b3565b828001600101855582156106b3579182015b828111156106b2578251825591602001919060010190610697565b5b5090506106c091906106c4565b5090565b5b808211156106dd5760008160009055506001016106c5565b5090565b60006106f46106ef84610ab3565b610a8e565b90508281526020810184848401111561070c57600080fd5b610717848285610be7565b509392505050565b600082601f83011261073057600080fd5b81356107408482602086016106e1565b91505092915050565b60006020828403121561075b57600080fd5b600082013567ffffffffffffffff81111561077557600080fd5b6107818482850161071f565b91505092915050565b6000610796838361090c565b905092915050565b6107a781610bab565b82525050565b6107b681610bab565b82525050565b60006107c782610af4565b6107d18185610b17565b9350836020820285016107e385610ae4565b8060005b8581101561081f5784840389528151610800858261078a565b945061080b83610b0a565b925060208a019950506001810190506107e7565b50829750879550505050505092915050565b600061083c82610aff565b6108468185610b33565b9350610856818560208601610bf6565b61085f81610d79565b840191505092915050565b600061087582610aff565b61087f8185610b44565b935061088f818560208601610bf6565b61089881610d79565b840191505092915050565b60006108b0603483610b44565b91506108bb82610d8a565b604082019050919050565b60006108d3602783610b44565b91506108de82610dd9565b604082019050919050565b60006108f6600083610b28565b915061090182610e28565b600082019050919050565b6000606083016000830151610924600086018261079e565b506020830151848203602086015261093c8282610831565b9150506040830151610951604086018261095c565b508091505092915050565b61096581610bdd565b82525050565b61097481610bdd565b82525050565b6000610985826108e9565b9150819050919050565b600060208201905081810360008301526109a981846107bc565b905092915050565b600060208201905081810360008301526109cb818461086a565b905092915050565b600060408201905081810360008301526109ed818561086a565b90506109fc60208301846107ad565b9392505050565b60006040820190508181036000830152610a1d818561086a565b9050610a2c602083018461096b565b9392505050565b60006020820190508181036000830152610a4c816108a3565b9050919050565b60006020820190508181036000830152610a6c816108c6565b9050919050565b6000602082019050610a88600083018461096b565b92915050565b6000610a98610aa9565b9050610aa48282610c5b565b919050565b6000604051905090565b600067ffffffffffffffff821115610ace57610acd610d4a565b5b610ad782610d79565b9050602081019050919050565b6000819050602082019050919050565b600081519050919050565b600081519050919050565b6000602082019050919050565b600082825260208201905092915050565b600081905092915050565b600082825260208201905092915050565b600082825260208201905092915050565b6000610b6082610bdd565b9150610b6b83610bdd565b9250827fffffffffffffffffffffffffffffffffffffffffffffffffffffffffffffffff03821115610ba057610b9f610cbd565b5b828201905092915050565b6000610bb682610bbd565b9050919050565b600073ffffffffffffffffffffffffffffffffffffffff82169050919050565b6000819050919050565b82818337600083830152505050565b60005b83811015610c14578082015181840152602081019050610bf9565b83811115610c23576000848401525b50505050565b60006002820490506001821680610c4157607f821691505b60208210811415610c5557610c54610d1b565b5b50919050565b610c6482610d79565b810181811067ffffffffffffffff82111715610c8357610c82610d4a565b5b80604052505050565b6000610c9782610bdd565b9150610ca283610bdd565b925082610cb257610cb1610cec565b5b828206905092915050565b7f4e487b7100000000000000000000000000000000000000000000000000000000600052601160045260246000fd5b7f4e487b7100000000000000000000000000000000000000000000000000000000600052601260045260246000fd5b7f4e487b7100000000000000000000000000000000000000000000000000000000600052602260045260246000fd5b7f4e487b7100000000000000000000000000000000000000000000000000000000600052604160045260246000fd5b6000601f19601f8301169050919050565b7f547279696e6720746f207769746864726177206d6f7265206d6f6e657920746860008201527f616e2074686520636f6e7472616374206861732e000000000000000000000000602082015250565b7f4661696c656420746f207769746864726177206d6f6e65792066726f6d20636f60008201527f6e74726163742e00000000000000000000000000000000000000000000000000602082015250565b5056fea264697066735822122030b89073de898b70709ab7213a153973f244ae70b24d6cc769908186a7838e6364736f6c63430008040033",
  "linkReferences": {},
  "deployedLinkReferences": {}
}